:100000000C9421010C9449010C9449010C94490170
:100010000C9449010C9449010C9449010C94490138
:100020000C9449010C9449010C9449010C94490128
:100030000C9449010C9449010C9449010C94490118
:100040000C94B0040C9449010C9420050C94FA040F
:100050000C9449010C9449010C9449010C944901F8
:100060000C9449010C94490150415F4D4158005096
:10007000415F484947480050415F4C4F570050414D
:100080005F4D494E0031362062697473003820623A
:100090006974730044697361626C6564006E5246F2
:1000A00032344C30312B006E524632344C303100F9
:1000B0003235304B42505300324D42505300314D97
:1000C000425053005354415455530909203D2030A8
:1000D00078253032782052585F44523D257820549C
:1000E000585F44533D2578204D41585F52543D257B
:1000F000782052585F505F4E4F3D25782054585F0E
:1001000046554C4C3D25780D0A00504120506F77E4
:10011000657209203D2025530D0A007E0077006F8F
:10012000006800435243204C656E67746809203DA7
:100130002025530D0A0094008D0085004D6F6465E5
:100140006C0909203D2025530D0A00A7009D00449D
:10015000617461205261746509203D2025530D0AA8
:1001600000BE00B800B00044594E50442F464541EF
:100170005455524500434F4E464947090052465F89
:1001800053455455500052465F43480900454E5F61
:1001900052584144445200454E5F41410900525873
:1001A0005F50575F50302D360054585F41444452E1
:1001B000090052585F414444525F50322D3500527D
:1001C000585F414444525F50302D31000000000818
:1001D000000201000003040700000000000000000E
:1001E00000000000250028002B0000000000240073
:1001F00027002A0004040404040404040202020286
:1002000002020303030303030102040810204080D9
:100210000102040810200102040810200D0A002524
:100220003032780020307800255309203D000D0A37
:10023000002030782530327800255309203D000019
:10024000520511241FBECFEFD8E0DEBFCDBF11E0B5
:10025000A0E0B1E0E6E6FAE102C005900D92A43418
:10026000B107D9F722E0A4E4B1E001C01D92AD329C
:10027000B207E1F711E0C1E2D1E004C02197FE012D
:100280000E94260DC032D107C9F70E9498050C9430
:10029000310D0C94000090E0FC01E85FFD4F2491CB
:1002A000FC01EC50FE4F8491882399F090E0880F78
:1002B000991FFC01E651FE4FA591B491FC01E0525B
:1002C000FE4F859194918FB7F894EC91E22BEC93CB
:1002D0008FBF089590E0FC01E453FE4F2491FC0190
:1002E000E85FFD4F3491FC01EC50FE4FE491EE23AA
:1002F00009F43CC0222339F1233091F038F4213045
:10030000A9F0223001F584B58F7D12C0273091F01D
:100310002830A1F02430B9F4809180008F7D03C093
:10032000809180008F77809380000DC084B58F7797
:1003300084BD09C08091B0008F7703C08091B00068
:100340008F7D8093B000F0E0EE0FFF1FE052FE4F74
:10035000A591B4919FB7F894611104C08C91309528
:10036000382302C0EC913E2B3C939FBF08959CB56F
:100370009F7D9CBD9CB5937F9CBD9CB59C7F9CBD87
:100380009DB591609DBD682F80910D020E946A010C
:1003900080911F02909120028230910538F0880FE1
:1003A000991F880F991F05970197F1F7089581E02C
:1003B0000C94B70180E00C94B7013FB7F89480919A
:1003C0006A0190916B01A0916C01B0916D0126B50D
:1003D000A89B05C02F3F19F00196A11DB11D3FBF7D
:1003E000BA2FA92F982F8827820F911DA11DB11D0B
:1003F000BC01CD0142E0660F771F881F991F4A9507
:10040000D1F708958F929F92AF92BF92CF92DF92D1
:10041000EF92FF926B017C010E94DD014B015C01B8
:10042000C114D104E104F104F1F00E94DD01DC010A
:10043000CB0188199909AA09BB09883E9340A105F7
:10044000B10570F321E0C21AD108E108F10888EE85
:10045000880E83E0981EA11CB11CC114D104E104D4
:10046000F10419F7DDCFFF90EF90DF90CF90BF90B0
:10047000AF909F908F900895CF92DF92EF92FF926E
:100480000F931F93CF93DF936C017A018B01C0E030
:10049000D0E0CE15DF0581F0D8016D918D01D60138
:1004A000ED91FC910190F081E02DC6010995892B19
:1004B00011F02196EECF7E01C701DF91CF911F9100
:1004C0000F91FF90EF90DF90CF900895089580E016
:1004D00090E00895FC01538D448D252F30E0842F4A
:1004E00090E0821B930B541710F0CF96089501975C
:1004F0000895FC01918D828D981761F0828DDF0146
:10050000A80FB11D5D968C91928D9F5F9F73928F06
:1005100090E008958FEF9FEF0895FC01918D828DFB
:10052000981731F0828DE80FF11D858D90E00895C8
:100530008FEF9FEF0895FC01918D228D892F90E020
:10054000805C9F4F821B91098F73992708958EE6D7
:1005500091E00E949B0221E0892B09F420E0822F88
:100560000895FC01848DDF01A80FB11DA35ABF4F70
:100570002C91848D90E001968F739927848FA689A2
:10058000B7892C93A089B1898C91837080648C93F6
:10059000938D848D981306C00288F389E02D8081A5
:1005A0008F7D80830895EF92FF920F931F93CF93D7
:1005B000DF93EC0181E0888F9B8D8C8D981305C0B3
:1005C000E889F989808185FD26C0F62E0B8D10E023
:1005D0000F5F1F4F0F731127E02E8C8DE8120CC098
:1005E0000FB607FCFACFE889F989808185FFF5CF3E
:1005F000CE010E94B102F1CF8B8DFE01E80FF11DFB
:10060000E35AFF4FF0829FB7F8940B8FEA89FB897A
:10061000808180620AC09FB7F894EE89FF89608369
:10062000E889F98980818370806480839FBF81E03D
:1006300090E0DF91CF911F910F91FF90EF9008957F
:10064000CF93DF93EC01888D8823C9F0EA89FB8979
:10065000808185FD05C0A889B9898C9186FD0FC070
:100660000FB607FCF5CF808185FFF2CFA889B98945
:100670008C9185FFEDCFCE010E94B102E7CFDF91D3
:10068000CF91089580E090E0892B29F00E94A70285
:1006900081110C94000008958EBD00000DB407FE7A
:1006A000FDCF8EB50895CF93C82F0E94DA018C2F0D
:1006B0008F710E944C038FEF0E944C03C82F0E9441
:1006C000D7018C2FCF910895CF93C82F0E94DA01C4
:1006D0008C2F0E944C03C82F0E94D7018C2FCF91E2
:1006E0000895CF93DF93C82FD62F0E94DA018C2F65
:1006F0008F7180620E944C03C82F8D2F0E944C0383
:100700000E94D7018C2FDF91CF9108950F931F93F3
:10071000CF938C0186E00E945303C82FC77D02301F
:10072000110531F4C0628BE990E0A0E0B0E00DC0AB
:100730000130110529F085E590E0A0E0B0E005C0AA
:10074000C86081E490E0A0E0B0E080931B02909349
:100750001C02A0931D02B0931E026C2F86E00E9423
:10076000710386E00E94530391E0C81390E0892F43
:10077000CF911F910F910895CF93C82F682F8EE6C8
:1007800091E00E94D3028C2FCC0F990BCF9108954A
:10079000009769F0FC0101900020E9F73197AF0163
:1007A000481B590BBC018EE691E00C943C0280E0A2
:1007B00090E00895FF920F931F93CF93DF93C62F7E
:1007C000D42F9F938F9389E392E09F938F930E94FE
:1007D000D208DC0F0F900F900F900F9001E312E002
:1007E000CD1791F0FF24F394FC0E8C2F0E9453033D
:1007F0001F928F931F930F930E94D2080F900F9018
:100800000F900F90CF2DECCF8EE292E09F938F93BD
:100810000E94D2080F900F90DF91CF911F910F91FE
:10082000FF9008952F923F924F925F926F927F9226
:100830008F929F92AF92BF92CF92DF92EF92FF92F0
:100840000F931F93CF93DF931F92CDB7DEB7962EF2
:10085000342E4DB65EB69F938F9388E292E09F93BD
:100860008F930E94D208390C0F900F900F900F9029
:1008700084E2C82E82E0D82E9FE1A92E92E0B92E04
:10088000931409F44AC06DB67EB620901902022D69
:1008900010E08DB79EB7801B910B0FB6F8949EBFEA
:1008A0000FBE8DBFEDB7FEB731967F01F1E0F90DB8
:1008B000F9830E94DA01892D8F710E944C03470150
:1008C000222041F08FEF0E944C03F40181934F01ED
:1008D0002A94F6CF0E94D701DF92CF920E94D208CD
:1008E0000E0D1F1D0F900F90015011090E151F05C1
:1008F00068F0F80180811F928F93BF92AF920E949F
:10090000D2080F900F900F900F90EECF0FB6F89483
:100910007EBE0FBE6DBE9980B3CF8CE192E09F93F7
:100920008F930E94D2080F900F900FB6F8945EBE7E
:100930000FBE4DBE0F90DF91CF911F910F91FF9091
:10094000EF90DF90CF90BF90AF909F908F907F906F
:100950006F905F904F903F902F9008950E942C0DC4
:100960001F920F920FB60F9211242F933F938F93E4
:100970009F93AF93BF938091660190916701A0917F
:100980006801B09169013091650123E0230F2D3793
:1009900020F40196A11DB11D05C026E8230F029683
:1009A000A11DB11D2093650180936601909367019D
:1009B000A0936801B093690180916A0190916B01E5
:1009C000A0916C01B0916D010196A11DB11D8093A4
:1009D0006A0190936B01A0936C01B0936D01BF917C
:1009E000AF919F918F913F912F910F900FBE0F90DC
:1009F0001F9018951F920F920FB60F9211242F93EC
:100A00003F934F935F936F937F938F939F93AF9396
:100A1000BF93EF93FF938EE691E00E94B102FF91A6
:100A2000EF91BF91AF919F918F917F916F915F9166
:100A30004F913F912F910F900FBE0F901F901895DF
:100A40001F920F920FB60F9211242F938F939F93A3
:100A5000EF93FF93E0917E01F0917F018081E0911F
:100A60008401F091850182FD12C0908180918701FF
:100A70008F5F8F7320918801821751F0E091870179
:100A8000F0E0E259FE4F958F8093870101C080818D
:100A9000FF91EF919F918F912F910F900FBE0F902B
:100AA0001F901895EEE6F1E01382128288EE93E033
:100AB000A0E0B0E084839583A683B78380E191E0D2
:100AC0009183808385EC90E09587848784EC90E027
:100AD0009787868780EC90E0918B808B81EC90E00B
:100AE000938B828B82EC90E0958B848B86EC90E0EC
:100AF000978B868B118E128E138E148EEBE0F2E0A4
:100B000089E090E0918380838AE090E09383828300
:100B1000168280E28783108685E0868785E090E0F4
:100B2000A0E0B0E0848B958BA68BB78B11860895DF
:100B3000CF93DF93CDB7DEB7A1970FB6F894DEBFA2
:100B40000FBECDBF789484B5826084BD84B58160CA
:100B500084BD85B5826085BD85B5816085BD809188
:100B60006E00816080936E00109281008091810000
:100B700082608093810080918100816080938100F8
:100B8000809180008160809380008091B1008460BA
:100B90008093B1008091B00081608093B00080911B
:100BA0007A00846080937A0080917A0082608093DA
:100BB0007A0080917A00816080937A0080917A0037
:100BC000806880937A001092C100E0917E01F091DC
:100BD0007F0182E08083E0917A01F0917B011082B5
:100BE000E0917C01F0917D018FEC80831092860171
:100BF000E0918201F091830186E08083E0918001A1
:100C0000F0918101808180618083E0918001F09189
:100C10008101808188608083E0918001F091810171
:100C2000808180688083E0918001F09181018081E2
:100C30008F7D808360E070E08CEB93E00E948708FA
:100C400080910B0290910C0220910D0230910E02C6
:100C50008217930711F00E944B0180910D02909131
:100C60000E0220910B0230910C022817390711F067
:100C70000E944B011FB7F89480914401811124C058
:100C8000EEEFF1E08491E2E1F2E09491E82FF0E000
:100C9000EE0FFF1FE651FE4FA591B491EC91E923B1
:100CA00021F461E08AE00E946A018AE00E944B011F
:100CB0008CB580618CBD8CB580648CBD8DE00E944C
:100CC0004B018BE00E944B01809144018F5F809328
:100CD00044011FBF80910B0290910C0220910D02E4
:100CE00030910E028217930719F060E00E946A01AA
:100CF00081E00E94B70165E070E080E090E00E9432
:100D000002026CE080E00E9471036FE584E00E94C3
:100D1000710382E090E00E948603882319F081E04D
:100D20008093110286E00E94530380E090E00E94CD
:100D300086030E94DA0180E50E944C0383E70E944B
:100D40004C030E94D70160E08DE10E94710360E0D6
:100D50008CE10E9471031092130260E787E00E9409
:100D600071036CE485E00E94710382EE0E946403CB
:100D700081EE0E94640380E00E94530381FD0BC05A
:100D8000682F626080E00E94710365E070E080E09F
:100D900090E00E94020280E00E945303682F6E7F61
:100DA00080E00E947103109119020E94DA018AE228
:100DB0000E944C0366E0E62E61E0F62E67011123E7
:100DC00039F0F60181916F010E944C031150F7CF69
:100DD0000E94D701109119020E94DA0180E30E945B
:100DE0004C03112339F0F70181917F010E944C03DC
:100DF0001150F7CF0E94D7016091120281E10E9449
:100E0000710360E081E00E94710382E090E00E9443
:100E1000860386E00E945303887F682F636086E024
:100E20000E9471038EE191E00E94C8038FE291E07D
:100E30000E94C8038FEF0E946403282F30E0982F90
:100E400091701F929F9335952795277033273F9375
:100E50002F9384FB992790F91F929F9385FB9927E5
:100E600090F91F929F9386FB992790F91F929F9369
:100E70001F928F9384EC90E09F938F930E94D208EF
:100E800042E06AE08FEB91E00E94120444E06CE0E3
:100E900082EB91E00E94DA0341E060E189EA91E0AF
:100EA0000E94120446E061E18EE991E00E94DA03BB
:100EB00041E061E087E991E00E94DA0341E062E00D
:100EC0008DE891E00E94DA0341E065E086E891E078
:100ED0000E94DA0341E066E08DE791E00E94DA03C8
:100EE00041E060E085E791E00E94DA0342E06CE1D6
:100EF00087E691E00E94DA0386E00E94530388723D
:100F00000FB6F894DEBF0FBECDBF803241F021E0B6
:100F100090E0883009F020E0E22FF92F02C0E2E0F3
:100F2000F0E0EE0FFF1FEF59FE4F859194919F93D4
:100F30008F938FE491E09F938F930E94D208E0916A
:100F40001102F0E0EE0FFF1FE55BFE4F85919491DB
:100F50009F938F938CE391E09F938F930E94D2088D
:100F600080E00E945303182F81E00E9453030FB6C4
:100F7000F894DEBF0FBECDBF13FD02C0882329F059
:100F800012FD06C0E1E0F0E005C0E0E0F0E002C0E4
:100F9000E2E0F0E0EE0FFF1FEA5CFE4F85919491D6
:100FA0009F938F9383E291E09F938F930E94D20847
:100FB00086E00E9453038670E82FF0E0E55EFE4F66
:100FC000859194919F938F938AE091E09F938F9363
:100FD0000E94D2080FB6F894DEBF0FBECDBF2AE044
:100FE000C22ED12CE12CF12C80914501909146012B
:100FF000A0914701B09148010196A11DB11D8093B8
:10100000450190934601A0934701B0934801109188
:101010001202012F113208F000E2809113028111B7
:1010200002C0101B01C010E00E94DA0180EA0E9499
:101030004C0385E4A82E81E0B82E015030F0F50174
:1010400081915F010E944C03F8CF112329F080E0C9
:101050000E944C031150F9CF0E94D70180910B02DE
:1010600090910C0220910D0230910E02821793078D
:1010700019F061E00E946A018FEF0E94640380739F
:10108000D9F380910B0290910C0220910D023091C6
:101090000E028217930719F060E00E946A0160E770
:1010A00087E00E94710384FF03C081EE0E94640305
:1010B0006AEF70E080E090E00E94020282E391E03B
:1010C0000E94C8032091450130914601409147019B
:1010D0005091480119A28E010F5D1F4FCA01B9013D
:1010E000A70196010E94040D605DF80162938F01D3
:1010F000211531054105510589F7CF010E94C8032B
:101100008FE291E00E94C8030E9442036DCF0F93CB
:101110001F93CF93DF93009731F46115710519F494
:1011200080E090E03AC08B01EC016EE070E081E07D
:1011300090E00E94D90AFC01892B91F380E8838317
:101140000115110571F01387028781E8838380916F
:10115000230290912402892B21F4F0932402E0933E
:1011600023022097C9F0D187C0878381826083835F
:101170008091250290912602892B71F4F09326022A
:10118000E09325028091270290912802892B21F477
:10119000F0932802E0932702CF01DF91CF911F91B6
:1011A0000F910895A0E0B0E0E8EDF8E00C94DB0CBE
:1011B000AE01495F5F4FDA016D917D91AD0103E2B0
:1011C00012E0F80182819381DC0113962C91139730
:1011D000286013962C930E94F808D8011296ED917E
:1011E000FC9113972381277F2383E4E00C94F70C71
:1011F000ABE0B0E0EEEFF8E00C94CD0C6C017B01BD
:101200008A01FC0117821682838181FFCCC1CE0145
:1012100001963C01F6019381F70193FD859193FFBF
:1012200081917F01882309F4BAC1853239F493FD95
:10123000859193FF81917F01853229F4B60190E079
:101240000E94330CE7CF912C212C312CFFE1F315B8
:10125000D8F08B3279F038F4803279F08332A1F40F
:10126000232D20611DC08D3261F0803369F4232D60
:10127000216016C0832D8260382EE32DE4603E2E5F
:101280002AC0F32DF8601DC037FC2DC020ED280FBB
:101290002A3040F08E32B9F436FC81C1232D20640F
:1012A000322E19C036FE06C08AE0989E200D112409
:1012B000922E11C0EAE02E9E200D1124222EF32D35
:1012C000F0623F2E08C08C3621F4832D8068382EC2
:1012D00002C0883641F4F70193FD859193FF819117
:1012E0007F018111B3CF982F9F7D9554933028F4BF
:1012F0000C5F1F4F9FE399830DC0833631F0833716
:1013000071F0833509F059C021C0F80180818983CB
:101310000E5F1F4F88248394912C530113C0280122
:10132000F2E04F0E511CF801A080B18036FE03C0E0
:10133000692D70E002C06FEF7FEFC5010E94280C9D
:101340004C018201F32DFF773F2E16C0280122E0C9
:10135000420E511CF801A080B18036FE03C0692DF9
:1013600070E002C06FEF7FEFC5010E94160C4C01C8
:10137000F32DF0683F2E820133FC1BC0822D90E0DC
:1013800088169906B0F4B60180E290E00E94330C12
:101390002A94F4CFF50137FC859137FE81915F01E6
:1013A000B60190E00E94330C21102A9421E0821AA9
:1013B00091088114910471F7E8C0843611F08936E0
:1013C00041F5F80137FE07C0608171818281938108
:1013D0000C5F1F4F08C060817181072E000C880BC5
:1013E000990B0E5F1F4FF32DFF763F2E97FF09C01D
:1013F00090958095709561957F4F8F4F9F4FF068C6
:101400003F2E2AE030E0A3010E946F0C882E861840
:1014100045C0853731F4232D2F7EB22E2AE030E0EF
:1014200025C0932D997FB92E8F36C1F018F48835D9
:1014300079F0B5C0803719F0883721F0B0C0E92FB6
:10144000E061BE2EB4FE0DC0FB2DF460BF2E09C0BE
:1014500034FE0AC0292F2660B22E06C028E030E0F4
:1014600005C020E130E002C020E132E0F801B7FE23
:1014700007C060817181828193810C5F1F4F06C01C
:101480006081718180E090E00E5F1F4FA3010E9498
:101490006F0C882E8618FB2DFF773F2E36FE0DC071
:1014A000232D2E7FA22E891458F434FE0BC032FC5B
:1014B00009C0832D8E7EA82E05C0B82CA32C03C096
:1014C000B82C01C0B92CA4FE0FC0FE01E80DF11D1F
:1014D0008081803321F49A2D997EA92E09C0A2FE25
:1014E00006C0B394B39404C08A2D867809F0B394EF
:1014F000A3FC11C0A0FE06C0B21488F4280C922CE4
:101500009B180EC0B21460F4B60180E290E00E9415
:10151000330CB394F7CFB21418F42B1802C0982CE4
:10152000212CA4FE10C0B60180E390E00E94330C91
:10153000A2FE17C0A1FC03C088E790E002C088E5C6
:1015400090E0B6010CC08A2D867859F0A1FE02C049
:101550008BE201C080E2A7FC8DE2B60190E00E9420
:10156000330C891438F4B60180E390E00E94330C08
:101570009A94F7CF8A94F301E80DF11D8081B601AA
:1015800090E00E94330C8110F5CF222009F442CE66
:10159000B60180E290E00E94330C2A94F6CFF60167
:1015A0008681978102C08FEF9FEF2B96E2E10C942A
:1015B000E90C0F931F93CF93DF93869F8001879F42
:1015C000100D969F100D1124C8010E94F50AEC0120
:1015D000009729F0A80160E070E00E94210CCE0184
:1015E000DF91CF911F910F9108950F931F93CF9388
:1015F000DF938230910510F482E090E0E0912B02BD
:10160000F0912C0220E030E0A0E0B0E0309719F13A
:10161000408151810281138148175907C8F084170E
:10162000950769F4109731F012960C931297139660
:101630001C9327C000932B0210932C0222C021156B
:10164000310519F04217530718F49A01BD01EF0153
:10165000DF01F801DBCF21153105F9F0281B390B2B
:101660002430310580F48A819B816115710521F058
:10167000FB019383828304C090932C0280932B02FE
:10168000FE01329644C0FE01E20FF31F8193919355
:1016900022503109398328833AC0209129023091A0
:1016A0002A02232B41F4209102013091030130934F
:1016B0002A02209329022091000130910101211575
:1016C000310541F42DB73EB7409104015091050119
:1016D000241B350BE0912902F0912A02E217F3074F
:1016E000A0F42E1B3F0B2817390778F0AC014E5F92
:1016F0005F4F2417350748F04E0F5F1F50932A02A3
:10170000409329028193919302C0E0E0F0E0CF0181
:10171000DF91CF911F910F910895CF93DF930097A1
:1017200009F481C0FC01329713821282A0912B022E
:10173000B0912C02109781F420813181820F931F88
:101740002091290230912A022817390751F5F09388
:101750002A02E093290267C0ED0120E030E0CE17B5
:10176000DF0740F44A815B819E0141155105F1F08C
:10177000EA01F5CFD383C28340815181840F951F45
:10178000C817D90759F488819981840F951F02964B
:10179000918380838A819B81938382832115310584
:1017A00029F4F0932C02E0932B023DC0E901FB8366
:1017B000EA8349915991C40FD51FEC17FD0761F4D5
:1017C00080819181840F951F0296E9019983888316
:1017D000828193819B838A83E0E0F0E012968D9171
:1017E0009C911397009719F0FD01DC01F7CF8D91C3
:1017F0009C9111979D012E5F3F4F820F931F209167
:10180000290230912A022817390769F4309729F400
:1018100010922C0210922B0202C013821282B093FB
:101820002A02A0932902DF91CF910895FC0105902F
:10183000615070400110D8F7809590958E0F9F1FD2
:101840000895DC0101C06D9341505040E0F70895C8
:10185000FC016150704001900110D8F7809590957F
:101860008E0F9F1F08950F931F93CF93DF93FB015C
:10187000238121FD03C08FEF9FEF2CC022FF16C0F4
:1018800046815781248135814217530744F4A08152
:10189000B1819D012F5F3F4F318320838C9326813F
:1018A00037812F5F3F4F3783268314C08B01EC01B4
:1018B000FB010084F185E02D0995892BE1F6D80123
:1018C00016968D919C911797019617969C938E93DF
:1018D0001697CE01DF91CF911F910F910895FA01D4
:1018E000AA27283051F1203181F1E8946F936E7F5F
:1018F0006E5F7F4F8F4F9F4FAF4FB1E03ED0B4E050
:101900003CD0670F781F891F9A1FA11D680F791F90
:101910008A1F911DA11D6A0F711D811D911DA11DA1
:1019200020D009F468943F912AE0269F11243019B1
:10193000305D3193DEF6CF010895462F4770405D4C
:101940004193B3E00FD0C9F7F6CF462F4F70405DFB
:101950004A3318F0495D31FD4052419302D0A9F756
:10196000EACFB4E0A6959795879577956795BA9550
:10197000C9F700976105710508959B01AC010A2E16
:1019800006945795479537952795BA95C9F7620FED
:10199000731F841F951FA01D08952F923F924F9291
:1019A0005F926F927F928F929F92AF92BF92CF92EF
:1019B000DF92EF92FF920F931F93CF93DF93CDB7F8
:1019C000DEB7CA1BDB0B0FB6F894DEBF0FBECDBF70
:1019D00009942A88398848885F846E847D848C8441
:1019E0009B84AA84B984C884DF80EE80FD800C814A
:1019F0001B81AA81B981CE0FD11D0FB6F894DEBF2D
:101A00000FBECDBFED010895A1E21A2EAA1BBB1B8C
:101A1000FD010DC0AA1FBB1FEE1FFF1FA217B307BA
:101A2000E407F50720F0A21BB30BE40BF50B661FD0
:101A3000771F881F991F1A9469F760957095809594
:101A400090959B01AC01BD01CF010895EE0FFF1FE2
:101A50000590F491E02D099481E090E0F8940C94C5
:061A6000310DF894FFCFE8
:101A660000002D02800030303030310000000000D0
:101A7600D3023C026A0220039B0279028D0220698E
:101A86006E69743A20646F6E65202E2E2E20000D2E
:101A96000A0020646174612E6933325F303A203D5A
:041AA6003E200000DE
:00000001FF
